:100000000C94EA020C947F100C9458100C94120378
:100010000C9412030C9412030C9412030C9412030C
:100020000C9412030C9412030C9412030C94A6105B
:100030000C9412030C9412030C9412030C941203EC
:100040000C940E100C9412030C94DC0F0C94B60F4D
:100050000C9412030C9412030C9412030C941203CC
:100060000C9412030C9412030000000024002700DB
:100070002A0000000000250028002B0000000000DE
:1000800023002600290004040404040404040202DA
:100090000202020203030303030301020408102007
:1000A0004080010204081020010204081020000012
:1000B0000008000201000003040700000000000027
:1000C000000004410306300A030303030303030390
:1000D0000303FC84FC88FC80E4A4BC9494FC3C20D6
:1000E000F09C94F4FCA4E40404FCFC94FC1C14FCBC
:1000F0000800000005000000000000000046960017
:100100000046960000000000000000009600460037
:100110000000000000000000004696000000000003
:1001200000000000000000000000000096004600F3
:1001300000000000000000000000000000469600E3
:1001400000000000000000000000000096004600D3
:10015000000000000000000000000000000000009F
:1001600000469600000000000000000096004600D7
:1001700000000000000000000046960000469600C7
:100180000000000000000000000000009600460093
:10019000960046009600460006000000060000009B
:1001A00000C8000000C8000000C80000C80000002F
:1001B000C8000000000000000000000000C80000AF
:1001C000C80000000000000000000000C80000009F
:1001D0000000000000C80000C8000000000000008F
:1001E00000000000000000000000000000C8000047
:1001F000C800000000000000C8000000C8000000A7
:100200000000000000C80000C8000000000000005E
:1002100000000000C80000000000000000C800004E
:1002200000000000C8000000C8000000000000003E
:1002300003000000040000000000000000000000B7
:1002400055FF37000000000055FF37000000000098
:100250000000000055FF37000000000055FF370088
:100260000000000000000000030000000300000088
:1002700055FF37000000000055FF37000000000068
:1002800055FF37000000000055FF37000000000058
:1002900055FF37000700000008000000F795FF0039
:1002A000F795FF00F795FF0000000000FFC78600EC
:1002B00000000000FFC78600F795FF000000000067
:1002C0000000000000000000FFC7860000000000E2
:1002D000FFC78600F795FF00000000000000000047
:1002E00000000000FFC78600FFC78600FFC786002A
:1002F000F795FF00F795FF00F795FF00000000005D
:10030000FFC7860000000000FFC786000000000055
:1003100098FF8600000000000000000089DEFF005A
:1003200089DEFF000000000098FF8600000000004A
:1003300098FF86000000000089DEFF00000000003A
:1003400089DEFF0098FF860098FF860098FF8600F0
:100350000000000089DEFF000000000089DEFF00D1
:1003600098FF86000000000098FF86000000000053
:1003700089DEFF000000000089DEFF000FDE0708B5
:1003800020600301050504050501020205050305BA
:100390000204050505050605050505050203060514
:1003A00006040507060506060607070505070507EF
:1003B00007050505070507070707070705030403E2
:1003C00005070206060506050506070505060507D5
:1003D00007050606050506070707060705030103C7
:1003E00005070000009F0301000301A87CAB7C2BE4
:1003F0006C52D332121552A848304C522250073C4E
:10040000C3C33C04340E340410107C1010C07010B0
:100410001010101010C0C0C0300C037E8181817E8E
:100420008081FF8080C2A19189C64281898976300E
:100430002826A1FFA0408F8989717C8A8989710350
:1004400001C1390776898989768E9191513ECCCC4C
:10045000C06C2C10282844828228282828288282D0
:100460004428281004A2120C7E8199A53E80F0AD8C
:1004700023ACF08081FF898976007E818181438170
:10048000FF81817E0081FF899D81C381FF913901B8
:10049000037E81818191721081FF890889FF8181AA
:1004A00081FF81816081817F0181FF9118A5C381D6
:1004B00081FF8180C081FF871887FF8181FF873896
:1004C000C1FF817E8181817E81FF8909063E41C114
:1004D000C1BE81FF8909394680C649898A730301F3
:1004E00081FF810103017F8180817F01010739C084
:1004F000390701017F8178817F0181C3241824C3DA
:100500008101038DF08D0301C3A19985C3FF818112
:10051000030C30C08181FF080403040880808080C0
:10052000808080010268949494F88082FE9088888C
:1005300070788484844C70888890FE827894949437
:100540009888FC8A8A8A1CA2A2A47E0282FE900855
:1005500088F0808888FA808088888A780082FE10F7
:10056000B4CC848082FE808084FC84F884F880840B
:10057000FC880484F880788484847882FEA4222213
:100580001C1C2222A4FE8284FC888404C8949494B7
:100590006C047E84848440047C808044FC80041C41
:1005A0006480641C04047C8470847C0484CC3030BB
:1005B000CC84048C94E0B40C04CCA4948CC4106E51
:1005C00081FF816E1010081010080000000000006C
:1005D0000000E21011241FBECFEFD8E0DEBFCDBF78
:1005E00014E0A0E0B1E0E2E2F4E502C005900D9273
:1005F000A038B107D9F728E0A0E8B4E001C01D9207
:10060000A533B207E1F712E0CAEED2E004C02197A9
:10061000FE010E94BB26C93ED107C9F70E941E11E8
:100620000C940F2A0C940000EF92FF920F931F93EB
:10063000CF93DF9310927807C82F082E000CDD0BA4
:10064000062E000C770B99E08902600D711D1124B4
:10065000B0E0A0E06B577E4F59E03FEF7B01EA0E20
:10066000FB1E90E080E0FC01EC0FFD1F3897A0F42A
:10067000589FF001599FF00D1124EE0DFF1DE081F0
:100680000E2F10E0F801EE0FFF1FE00FF11FE056F4
:10069000F94F3083318332830196841720F311960A
:1006A000A217E0F2DF91CF911F910F91FF90EF9091
:1006B00008952F923F924F925F926F927F928F9206
:1006C0009F92AF92BF92CF92DF92EF92FF920F93E1
:1006D0001F93CF93DF9310927807FC01059115913A
:1006E00025913491A02EFC013496C590D590E590CB
:1006F000F490BC2C802E912C262E062E000C330854
:10070000042E000C550B8A0129E06202000D111D18
:100710001124D0E0C0E0B0E0A0E00B571E4F0896D7
:10072000AB1508F03CC07801EA0EFB1E70E060E0FB
:100730006A01CA0EDB1E6A1570F59B01220D331D7E
:100740002830310528F528E0C216D10408F5FB0150
:10075000EC0FFD1FEE0FFF1FEE0FFF1FE80FF91F3D
:10076000459055906590749029E0269FF001279F51
:10077000F00D1124EE0DFF1DE081F0E09F01220F2E
:10078000331FE20FF31FE056F94F6082518242821D
:100790006F5F7F4FD0CF1196C80DD91DC1CFDF91AC
:1007A000CF911F910F91FF90EF90DF90CF90BF906E
:1007B000AF909F908F907F906F905F904F903F9001
:1007C0002F90089587E480937C0080917A00806464
:1007D00080937A0080917A0086FDFCCF809178002A
:1007E000909179000895FB01DC016C9112967C9147
:1007F000962F990F990F990F35E5292F239F020EF8
:1008000020E0211D1124822F562F5074462F407254
:1008100067FD47C0511133C0411105C0922F90951B
:10082000892F90E004C025E5280F90E08BEA7F3FF8
:1008300009F421C030E0772321F0779F312D09F0B2
:100840003F5F332309F44EC0882331F0482F439F84
:10085000040E40E0411D842F222321F0239F020E2D
:1008600020E0211D992331F0492F439F040E40E0E1
:10087000411D942F11248083218392830895411177
:100880000BC0392F2AEA329F030E30E0311D1124AC
:100890009BEA931B280FC4CF90E02095982F80E00F
:1008A000C6CF511112C041110CC0392F2AEA329F14
:1008B000030E30E0311D11242BEA231B95E5930F25
:1008C000EECF922F909520E0B2CF411106C025E5E2
:1008D000280F9BEA981B822FF6CF2AEA280F90E078
:1008E000932FF8CF90E020E080E0C5CF80E991E041
:1008F0000895AF92BF92CF92DF92EF92FF920F9343
:100900001F93CF93DF936C017B018B01040F151FA5
:10091000EB015E01AE18BF08C017D10759F069910D
:10092000D601ED91FC910190F081E02DC601099571
:10093000892B79F7C501DF91CF911F910F91FF901E
:10094000EF90DF90CF90BF90AF900895FC01538D52
:10095000448D252F30E0842F90E0821B930B541799
:1009600010F0CF96089501970895FC01918D828D26
:10097000981761F0A28DAE0FBF2FB11D5D968C91BF
:10098000928D9F5F9F73928F90E008958FEF9FEFFE
:100990000895FC01918D828D981731F0828DE80FBA
:1009A000F11D858D90E008958FEF9FEF0895FC0174
:1009B000918D228D892F90E0805C9F4F821B910941
:1009C0008F73992708958BE897E00E94D70421E060
:1009D000892B09F420E0822F089580E090E0892B94
:1009E00029F00E94E30481110C9400000895FC0199
:1009F000A48DA80FB92FB11DA35ABF4F2C91848D80
:100A000090E001968F739927848FA689B7892C93DC
:100A1000A089B1898C91837080648C93938D848D2F
:100A2000981306C00288F389E02D80818F7D808332
:100A30000895EF92FF920F931F93CF93DF93EC01F2
:100A400081E0888F9B8D8C8D98131AC0E889F98975
:100A5000808185FF15C09FB7F894EE89FF89608378
:100A6000E889F98980818370806480839FBF81E0F9
:100A700090E0DF91CF911F910F91FF90EF9008953B
:100A8000F62E0B8D10E00F5F1F4F0F731127E02E16
:100A90008C8D8E110CC00FB607FCFACFE889F9894E
:100AA000808185FFF5CFCE010E94F704F1CFEB8D59
:100AB000EC0FFD2FF11DE35AFF4FF0829FB7F89422
:100AC0000B8FEA89FB8980818062CFCFCF93DF9340
:100AD000EC01888D8823B9F0AA89BB89E889F98956
:100AE0008C9185FD03C0808186FD0DC00FB607FC8B
:100AF000F7CF8C9185FFF2CF808185FFEDCFCE01BE
:100B00000E94F704E9CFDF91CF910895833081F0FF
:100B100028F4813099F08230A9F008958730A9F047
:100B20008830C9F08430B1F4809180008F7D03C09B
:100B3000809180008F7780938000089584B58F77AF
:100B400084BD089584B58F7DFBCF8091B0008F77F1
:100B50008093B00008958091B0008F7DF9CFCF933E
:100B6000DF93282F30E0F901E255FF4F8491F9011E
:100B7000E656FF4FD491F901EA57FF4FC491CC23B9
:100B8000A1F081110E948605EC2FF0E0EE0FFF1F0F
:100B9000E458FF4FA591B491EC91ED2381E090E0F2
:100BA00009F480E0DF91CF91089580E090E0FACFE2
:100BB0001F93CF93DF93282F30E0F901E255FF4FC9
:100BC0008491F901E656FF4FD491F901EA57FF4F9E
:100BD000C491CC23A9F0162F81110E948605EC2F19
:100BE000F0E0EE0FFF1FEE58FF4FA591B4918FB7C5
:100BF000F894EC91111108C0D095DE23DC938FBFDF
:100C0000DF91CF911F910895DE2BF8CFCF93DF9323
:100C100090E0FC01E656FF4F24918A579F4FFC015C
:100C200084918823C9F090E0880F991FFC01E8594E
:100C3000FF4FA591B491FC01EE58FF4FC591D4919F
:100C400061110DC09FB7F8948C91209582238C93ED
:100C50008881282328839FBFDF91CF910895623038
:100C600051F49FB7F8943C91822F809583238C9305
:100C7000E8812E2BEFCF8FB7F894EC912E2B2C938D
:100C80008FBFEACF3FB7F89480912B0590912C0548
:100C9000A0912D05B0912E0526B5A89B05C02F3F2C
:100CA00019F00196A11DB11D3FBFBA2FA92F982F92
:100CB0008827BC01CD01620F711D811D911D43E08C
:100CC000660F771F881F991F4A95D1F708958F9255
:100CD0009F92AF92BF92CF92DF92EF92FF924B0121
:100CE0005C010E9442066B017C010E9442066C1965
:100CF0007D098E099F09683E734081059105A8F31F
:100D000021E0821A9108A108B10888EEC80E83E09C
:100D1000D81EE11CF11C81149104A104B10429F72F
:100D2000FF90EF90DF90CF90BF90AF909F908F900B
:100D300008952FB7F8946091270570912805809148
:100D4000290590912A052FBF08954F925F926F92C7
:100D50007F929F92AF92BF92CF92DF92EF92FF92DB
:100D60000F931F93CF93DF9300D01F92CDB7DEB7C1
:100D7000F090280880912B0890912C08A0912D08C4
:100D8000B0912E08892B8A2B8B2BD9F00E9442061A
:100D900000918707109188072091890730918A0771
:100DA000601B710B820B930B00912B0810912C0888
:100DB00020912D0830912E08601771078207930744
:100DC000C8F20E9442066093870770938807809359
:100DD000890790938A07E0913308F091340830979F
:100DE00059F040912F08509130086091310870916E
:100DF00032088F2D0995F82E0091850710918607EE
:100E00004F2C512C712C612C0115110509F45EC079
:100E1000D8011C96EC901C978091290890912A0883
:100E20008436910510F41C961C92D801ED91FC912A
:100E3000A280B38019821A821B82FF2089F1F801F7
:100E40003696D12CC12C2191222319F19280992020
:100E500001F130E050E040E02F5F3F4F4F4F5F4FD8
:100E6000C301B2010E9489269B01AC01892D90E04B
:100E7000B0E0A0E0BC01CD016F5F7F4F8F4F9F4F6F
:100E80000E948926A1E0B0E0AC0FBD1FAC0DBD1DD6
:100E90008C93BFEFCB1ADB0A83E0C816D10499F616
:100EA000D8011D964D915C911E9712966D917C9183
:100EB0009E012F5F3F4FC801F5010995D8011C968F
:100EC000EC921C9714960D911C919ECF80918307F4
:100ED000909184078C010F5F1F4F1093840700933C
:100EE000830749978CF10E9499069B01AC0188EE1B
:100EF00093E0089FB001099F700D189F700D112499
:100F0000072E000C880B990BC0907F07D0908007AC
:100F1000E0908107F09082072C193D094E095F0986
:100F20000E94582630932A0820932908109284079B
:100F3000109283070E94990660937F077093800741
:100F400080938107909382070F900F900F90DF910D
:100F5000CF911F910F91FF90EF90DF90CF90BF90B6
:100F6000AF909F907F906F905F904F900895CF9239
:100F7000DF92EF92FF92CF93DF930E9499066B016D
:100F80007C0182E00E94AF05EC018BE00E94AF057E
:100F90009C0190919A06923009F451C058F499231B
:100FA00009F19130D1F1DF91CF91FF90EF90DF9077
:100FB000CF9008959330B1F09430A9F7CD2B99F7E5
:100FC00090910801232B09F44DC098301CF49F5FC9
:100FD00090930801809108018111E5CF81E0809311
:100FE0000801E1CFCD2B49F490910701232B89F023
:100FF0009A3F18F49F5F90930701C0924606D092E3
:101000004706E0924806F092490683E080939A06EC
:10101000CACF9F3190F39150EECFCD2B21F6909116
:101020000501232B39F09F3308F0BDCF9F5F9093CC
:101030000501B9CF992309F4B6CF9150F8CFCD2B44
:1010400009F0B1CF90919206232B39F0983008F037
:10105000AACF9F5F90939206A6CF923008F4A3CFB9
:101060009150F8CF993F1CF09150909308018091D6
:101070000801811198CF8FEFB2CF08950F931F937E
:10108000CF93DF93209125052F5F322F3770309358
:10109000250520FF2BC020E831FD2064347009F0C5
:1010A0002062205FFC01EC01239600E011E06485E2
:1010B000662329F070E0C8010E94A7266F5F618750
:1010C000322F369F030E30E0311D1124311110C034
:1010D0001682662311F0615061873196EC17FD0787
:1010E00031F7DF91CF911F910F91089520E0D4CF78
:1010F00031503683EECF4F925F926F927F928F92F4
:10110000AF92BF92CF92DF92EF92FF920F931F9315
:10111000CF93DF933C01EB010E944206F301278548
:101120003089621B730B6A307105B0F3F894E88163
:10113000F98175B1726065B16D7F65B9CA848F81BF
:101140002C2D281B822F2F83BF844A805B801D8516
:101150000C85DE841F5F0F5FD3949E813885A98440
:10116000EB844181D20120E0C32F522F322F3181F5
:10117000442788943111380F08F43FEF8195889403
:1011800010FD430F4795889411FD430F47958894B0
:1011900012FD430F4795889413FD430F479588949C
:1011A00014FD430F4795889415FD430F4795889488
:1011B00016FD430F4795889417FD430F4795889474
:1011C000232F1111242F8C0D422F002C75B947FFAE
:1011D00065B930812227889465B93111390F75B905
:1011E00046FF65B908F43FEF9195889465B900FD15
:1011F000230F75B945FF65B92795889401FD230F25
:1012000065B92795889475B944FF65B902FD230F28
:101210002795889465B903FD230F75B943FF65B918
:101220002795889404FD230F65B92795889475B98F
:1012300042FF65B905FD230F2795889465B906FD22
:10124000230F75B941FF65B92795889407FD230FD2
:1012500065B92795889475B940FF65B9432F011189
:10126000422F9A0D65B900C075B947FF65B9328143
:101270002227889465B931113C0F75B946FF65B9CD
:1012800008F43FEFEB0DF11D65B9D0FC230F75B9E4
:1012900045FF65B927958894D1FC230F65B927953B
:1012A000889475B944FF65B9D2FC230F27958894BB
:1012B00065B9D3FC230F75B943FF65B927958894A9
:1012C000D4FC230F65B92795889475B942FF65B999
:1012D000D5FC230F2795889465B9D6FC230F75B9E3
:1012E00041FF65B927958894D7FC230F65B92795E9
:1012F000889475B940FF65B9432FD110422FC1952D
:1013000065B9CE0D002C75B947FF65B9318122272B
:10131000889465B93111380F75B946FF65B908F47D
:101320003FEF8195889465B910FD230F75B945FF8E
:1013300065B92795889411FD230F65B92795889481
:1013400075B944FF65B912FD230F2795889465B9D7
:1013500013FD230F75B943FF65B92795889414FDD4
:10136000230F65B92795889475B942FF65B915FDB6
:10137000230F2795889465B916FD230F75B941FF92
:1013800065B92795889417FD230F65B9279588942B
:1013900075B940FF65B9432F1111422F8C0D65B906
:1013A000119709F013CF20EF30E0D2010E94C92637
:1013B0006B017C01F3E0F694E794D794C794FA9517
:1013C000D1F730E020E0F9018AE9489E040CE11DE4
:1013D000589EE00DF11D1124E50DF11DCF01B0E087
:1013E000A0E0880F991FAA1FBB1F8C0D9D1DAE1D6D
:1013F000BF1D893E43E09407A105B10508F434C040
:10140000885E9340A109B10942E0B695A7959795EA
:1014100087954A95D1F747E0849F080E211D949F38
:10142000200D311D1124290F311D6091240570E01C
:10143000860F971F820F931F409127055091280513
:101440006091290570912A05292F3327420F531FD8
:10145000611D711D40932705509328056093290550
:1014600070932A058093240578940E944206F30124
:10147000708B6787DF91CF911F910F91FF90EF9055
:10148000DF90CF90BF90AF908F907F906F905F90E4
:101490004F900895219A08950F931F93CF93DF9350
:1014A000CDB7DEB762970FB6F894DEBF0FBECDBFE3
:1014B0008C01F901DC011C968C917A8369835C8331
:1014C0004B835E834D8390819D8791819E8792811E
:1014D0009F878130F1F4CE0101960E943E0883E09F
:1014E000888B1A8A198AD801ED91FC910484F585BC
:1014F000E02DBE016F5F7F4FC801099562960FB660
:10150000F894DEBF0FBECDBFDF91CF911F910F9139
:1015100008951C861B861A86198618861F82DFCFBF
:101520000F931F93CF93DF93CDB7DEB762970FB6BC
:10153000F894DEBF0FBECDBF8C01F901DC011C9613
:101540008C917A8369835C834B835E834D83908126
:101550009D8791819E8792819F878130E9F4CE019A
:1015600001960E943E08188A1A8A198AD801ED91BC
:10157000FC910484F585E02DBE016F5F7F4FC801AB
:10158000099562960FB6F894DEBF0FBECDBFDF910E
:10159000CF911F910F9108951C861B861A8619867C
:1015A00018861F82E0CFCF92DF92EF92FF920F93C7
:1015B0001F930E949906009120051091210520910A
:1015C0002205309123056B017C01C01AD10AE20A81
:1015D000F30A970186010A3011052105310508F447
:1015E00050C060932005709321058093220590934D
:1015F000230580911C0590911D05A0911E05B091B9
:101600001F050196A11DB11D80931C0590931D051A
:10161000A0931E05B0931F0580FF33C030913D0697
:1016200021E0322730933D06AC01BD0143705527C0
:1016300066277727433051056105710511F5309113
:101640004206322730934206AC01BD014770552750
:1016500066277727473051056105710591F4309170
:101660003C06322730933C068F709927AA27BB2768
:101670000F97A105B10529F480911B052827209318
:101680001B051F910F91FF90EF90DF90CF90089571
:10169000EF92FF920F931F93CF93DF93EDECF4E063
:1016A0008AE496E0C5E8D4E025E6E22E25E0F22EB5
:1016B0000081118172816381548145813681278146
:1016C0003896DC010C9311961C93119712967C931B
:1016D000129713966C93139714965C931497159620
:1016E0004C93159716963C93169717962C9308963D
:1016F000088119817A816B815C814D813E812F81C6
:101700002896D7010C9311961C93119712967C93EF
:10171000129713966C93139714965C9314971596DF
:101720004C93159716963C93169717962C93B8E002
:10173000EB0EF11C25E0ED30F20709F0B9CF8FEF89
:1017400080930401DF91CF911F910F91FF90EF9053
:1017500008952F923F924F925F926F927F928F9255
:101760009F92AF92BF92CF92DF92EF92FF920F9330
:101770001F93CF93DF93CDB7DEB72E970FB6F894B4
:10178000DEBF0FBECDBF490100937807FC01349640
:10179000E491762F7E1BDE01119627E0FD01119268
:1017A0002A95E9F730E020E0F901E80FF91FE4910C
:1017B000ED932F5F3F4F26303105B1F7FC01369690
:1017C00020E0412C512C3201271741F03491430E77
:1017D000511C611C711C2F5F3196F6CF2E8130E0B9
:1017E0002A5F3F4F240D351DE62F660FFF0B6D81DD
:1017F000E61BF1093696E80FF91F3490FC81FA8751
:101800004887598769E0E885F9856E9FA0016F9F39
:10181000500D1124480D591DB12CA12CBA016B5744
:101820007E4F7E876D87402E512C77E0470E511CEE
:101830003C01620E731E88E0282E9A85291AA31493
:1018400008F04FC0E9E0EA9DC001EB9D900D112426
:101850002D853E85280F391F3C872B8710E000E03F
:10186000F301EA0DFB1D802F3A85031788F5688583
:1018700079854616570648F19801280D391D2830FC
:10188000310518F5249130E0820D02C03595279579
:101890008A95E2F7217030E050E040E0C701B601E0
:1018A0000E948926AB85BC85A00FB11F2C9130E02A
:1018B000D901AA0FBB1FA20FB31FA056B94F8C931B
:1018C00011967C93119712966C930F5F1F4FCBCF9D
:1018D0007FEFA71AB70A8885998501969987888727
:1018E000AECF2E960FB6F894DEBF0FBECDBFDF9100
:1018F000CF911F910F91FF90EF90DF90CF90BF900D
:10190000AF909F908F907F906F905F904F903F909F
:101910002F900895E0EAF6E0108211821282339649
:1019200087E0E036F807C1F70895E0EAF6E03AEF1D
:101930002081239F020E20E0211D20832181239FEF
:10194000020E20E0211D21832281239F020E20E030
:10195000211D22831124339687E0E837F80741F7E9
:10196000089590E080E00895FC01858596850895AE
:10197000CF93DF9300D000D000D0CDB7DEB7AB015E
:101980001C821D821E82DC01ED91FC910190F08190
:10199000E02D19821A821B829E012F5F3F4FBE01EC
:1019A0006C5F7F4F099526960FB6F894DEBF0FBE89
:1019B000CDBFDF91CF910895FC01DB013C912081E7
:1019C000230F08F42FEF208311963C91119721816A
:1019D000230F08F42FEF218312963C912281230FCD
:1019E00008F42FEF228308952F923F924F925F9237
:1019F0006F927F928F929F92AF92BF92CF92DF921F
:101A0000EF92FF920F931F93CF93DF9300D01F921B
:101A1000CDB7DEB79B838A83B62E29013A010E9497
:101A20009906AB01BC01EA81FB8101900020E9F736
:101A300031971E2FEA801E199E2CFB80F982AE2D55
:101A4000BF2D30E020E080E893E0EA2FE919E117AC
:101A500078F4AD90FC01D490EA2CED18FF08F70162
:101A6000EE57FC4FE4912E0F311D2F5F3F4FEDCF0E
:101A70002090790730907A0780917B0790917C07BE
:101A8000A0917D07B0917E076A017B01C81AD90A2F
:101A9000EA0AFB0AEAE0BE9EC0011124092E000CEE
:101AA000AA0BBB0BC816D906EA06FB0698F14093B1
:101AB0007B0750937C0760937D0770937E078FEEC2
:101AC0009FEF821B930B28163906F4F0F1E02F1AD2
:101AD000310830927A072092790780E00F900F90BA
:101AE0000F90DF91CF911F910F91FF90EF90DF90BA
:101AF000CF90BF90AF909F908F907F906F905F90AE
:101B00004F903F902F90089510927A071092790786
:101B100081E0E4CF29E0220E311C0E948A0CAA80C9
:101B2000BB80812C811650F5A92DB98150E040E091
:101B30008A2F8919881580F48D91E0E8F3E094915B
:101B4000E82EE91AFF08F701EE57FC4FE491F0E0A8
:101B500031964E0F5F1FECCFF50161915F01420D91
:101B6000042E000C550B7301620100E030E020E010
:101B70008CE793E00E94A90B8394D4CFAFCF1F933F
:101B8000CF93DF93182FD62FC8E06D2F661F6627DF
:101B9000661F812F0E94D805DD0F61E08FE00E9453
:101BA000D80560E08FE00E94D805C15071F7DF9141
:101BB000CF911F91089560E08EE00E94D80560915A
:101BC000150581E10E94BF0D6091620581E10E94CF
:101BD000BF0D61E08EE00C94D8052F923F924F929A
:101BE0005F926F927F928F929F92AF92BF92CF92AD
:101BF000DF92EF92FF920F931F93CF93DF930E9498
:101C000099066B017C0180911A05882309F454C060
:101C10000091940621E030E040E050E060E070E0A8
:101C200080E090E00E94D026922E832E742E652EA6
:101C3000562E472E382E292EB0911505EAE4F6E0EF
:101C4000D0E0C0E0AA24A394B12C2081318142814C
:101C500053816481758186819781389685010C2E28
:101C600001C0000F0A94EAF72921382147215621A3
:101C70006521742183219221A0E00E94062709F4A6
:101C80006DC0B02B2196C830D105F9F6B09315057B
:101C9000C0928104D0928204E0928304F092840482
:101CA00010921A0581E08093800480916205826021
:101CB000809362050E94DB0D8091810490918204E3
:101CC000A0918304B0918404C81AD90AEA0AFB0AD5
:101CD00084E1C816D104E104F10408F442C0809103
:101CE00080048823F1F14091450650E020911505CC
:101CF00090E080E0E1E0F0E0BA01082E02C07595C6
:101D000067950A94E2F760FD08C0BF01082E01C084
:101D1000660F0A94EAF760952623019688309105AC
:101D200059F72093150510928004809162058D7FEC
:101D300080936205DF91CF911F910F91FF90EF90FB
:101D4000DF90CF90BF90AF909F908F907F906F90DB
:101D50005F904F903F902F900C94DB0D0095B02337
:101D600091CFDF91CF911F910F91FF90EF90DF9076
:101D7000CF90BF90AF909F908F907F906F905F902B
:101D80004F903F902F9008950E9499060E949906C7
:101D900060931605709317058093180590931905A5
:101DA000809106018823D1F080913B06811116C0F5
:101DB000809194068F5F8093940690910501981707
:101DC00040F410929406809104018F3F11F00E941C
:101DD000480B81E080931A050C94ED0D08950E9444
:101DE00032270C9418260C9410266F927F928F92B3
:101DF0009F92AF92BF92CF92DF92EF92FF920F939A
:101E00001F93CF93DF93182F21E8829FC0011124E5
:101E10004C0130E8830E911C25E8622E24E0722EDE
:101E2000CDECD4E0DC01AD5CB4406D0118821982C8
:101E30001A821B821C821D821E821F825601AC0EDA
:101E4000BD1EF12CE12CC5010E94F30E282F30E0BD
:101E500040E050E060E070E080E090E00E2D0E94F5
:101E6000D026E8812E2B28832981322B39832A81A1
:101E7000422B4A832B81522B5B832C81622B6C83F8
:101E80002D81722B7D832E81822B8E838F81982BC7
:101E90009F83C501805C9F4F0E94F30E282F30E086
:101EA00040E050E060E070E080E090E00E94D026EA
:101EB000D301EC912E2B2C9311962C911197322B50
:101EC00011963C93119712962C911297422B1296D1
:101ED0004C93129713962C911397522B13965C9355
:101EE000139714962C911497622B14966C93149755
:101EF00015962C911597722B15967C93159716961F
:101F00002C911697822B16968C93169717968C9178
:101F10001797982B17969C93C4010E94F30E8093F9
:101F20000501BFEFAB1ABB0AE8E0EE0EF11CF0E4CE
:101F3000EF16F10409F087CF289628E0620E711C95
:101F400035E0CD30D30709F071CF10930401DF9154
:101F5000CF911F910F91FF90EF90DF90CF90BF90A6
:101F6000AF909F908F907F906F9008951F920F92E7
:101F70000FB60F9211242F933F934F935F936F935C
:101F80007F938F939F93AF93BF93EF93FF938BE8D0
:101F900097E00E94F704FF91EF91BF91AF919F915D
:101FA0008F917F916F915F914F913F912F910F9002
:101FB0000FBE0F901F9018951F920F920FB60F92A1
:101FC00011242F938F939F93EF93FF93E0919B079F
:101FD000F0919C078081E091A107F091A20782FD1A
:101FE0001BC090818091A4078F5F8F732091A507FC
:101FF000821741F0E091A407F0E0E557F84F958F84
:102000008093A407FF91EF919F918F912F910F9053
:102010000FBE0F901F9018958081F4CF1F920F92E2
:102020000FB60F9211242F933F938F939F93AF93EB
:10203000BF938091270590912805A0912905B09123
:102040002A053091260526E0230F2D3758F50296F4
:10205000A11DB11D20932605809327059093280587
:10206000A0932905B0932A0580912B0590912C050A
:10207000A0912D05B0912E050196A11DB11D809353
:102080002B0590932C05A0932D05B0932E05BF91A1
:10209000AF919F918F913F912F910F900FBE0F9015
:1020A0001F90189529E8230F0396A11DB11DD2CFCB
:1020B0001F920F920FB60F9211242F933F934F93BD
:1020C0005F936F937F938F939F93AF93BF93EF93A0
:1020D000FF93E0910201F09103010995FF91EF91C7
:1020E000BF91AF919F918F917F916F915F914F9130
:1020F0003F912F910F900FBE0F901F9018951F9238
:102100000F920FB60F9211242F933F934F935F932B
:102110006F937F938F939F93AF93BF93EF93FF93AF
:10212000E0910001F09101010995FF91EF91BF91BC
:10213000AF919F918F917F916F915F914F913F915F
:102140002F910F900FBE0F901F9018951F920F9216
:102150000FB60F9211242F933F934F935F936F937A
:102160007F938F939F93AF93BF93EF93FF93809150
:102170003B068823B1F0809194068F5F809394068C
:1021800090910501981740F41092940680910401F3
:102190008F3F11F00E94480B81E080931A050E9446
:1021A000ED0DFF91EF91BF91AF919F918F917F9135
:1021B0006F915F914F913F912F910F900FBE0F90B4
:1021C0001F901895EBE8F7E01382128288EE93E0F7
:1021D000A0E0B0E084839583A683B78383EE91E08B
:1021E0009183808385EC90E09587848784EC90E0F0
:1021F0009787868780EC90E0918B808B81EC90E0D4
:10220000938B828B82EC90E0958B848B86EC90E0B4
:10221000978B868B118E128E138E148EE8E2F8E067
:102220008FEF808312821182148613868FEF9FEFC7
:10223000DC0187839087A187B2870895CF93DF93CE
:10224000CDB7DEB7C554D1090FB6F894DEBF0FBEC7
:10225000CDBF789484B5826084BD84B5816084BD2F
:1022600085B5826085BD85B5816085BD80916E0034
:10227000816080936E001092810080918100826065
:1022800080938100809181008160809381008091A2
:1022900080008160809380008091B1008460809391
:1022A000B1008091B00081608093B00080917A008D
:1022B000846080937A0080917A00826080937A00B3
:1022C00080917A008E7F80937A0080917A00806876
:1022D00080937A001092C10080914205811145C01F
:1022E00010923405109233058FEF80933705809359
:1022F00038058093390580933A0580933B05809398
:102300003C0581E080933D0510923F0510923E050B
:1023100010923605109235058091850790918607B9
:10232000892B31F481E395E09093860780938507AC
:10233000E0912F05F0913005309721F081E395E091
:102340009583848381E395E09093300580932F05F6
:1023500010924105109240058DE191E09093320575
:102360008093310581E080934205219A80EA96E0CE
:10237000909334058093330588E490E090933F0573
:1023800080933E0580912B0890912C08A0912D08F8
:10239000B0912E08843C09E09007A105B10520F416
:1023A00084EC99E0A0E0B0E080932B0890932C0897
:1023B000A0932D08B0932E0860E08AE00E940606E4
:1023C00060E087E00E94060661E088E00E94060661
:1023D00061E084E00E94060661E085E00E94060656
:1023E00061E086E00E94060661E08EE00E9406063B
:1023F00061E08FE00E94060661E081E10E9406062E
:1024000061E080E10E94060660E083E00E9406062B
:1024100061E082E10E94060662E082E00E94060618
:1024200062E08BE00E94060662E08CE00E940606F5
:1024300087EB97E090930101809300018091690000
:102440008C7F816080936900E89A84EC9EE0909391
:10245000030180930201809169008C608093690080
:10246000E99A61E082E10E94D80560E082E10E9481
:10247000D805809162058E7F809362050E94DB0DF6
:1024800060EF80E10E94BF0D60E080E10E94BF0D1F
:10249000809162058160809362050E94DB0D8091CE
:1024A00062058E7F809362050E94DB0D68EF80E1FC
:1024B0000E94BF0D60E080E10E94BF0D8091620527
:1024C0008160809362050E94DB0D809162058E7FA2
:1024D000809362050E94DB0D60EA80E10E94BF0DDF
:1024E00060E080E10E94BF0D809162058160809371
:1024F00062050E94DB0D809162058E7F80936205EC
:102500000E94DB0D60E880E10E94BF0D6CE080E17D
:102510000E94BF0D809162058160809362050E94D8
:10252000DB0D809162058E7F809362050E94DB0D3A
:1025300060EA80E10E94BF0D60E080E10E94BF0D73
:10254000809162058160809362050E94DB0D8FEFB0
:1025500093E00E94F30E813179F110E000E060E039
:10256000C8010E94F10E0F5F1F4F083E23E01207C3
:10257000B1F768E788EE93E00E94F10E60E089EE23
:1025800093E00E94F10E60E08AEE93E00E94F10E6B
:1025900065E68BEE93E00E94F10E60E08CEE93E036
:1025A0000E94F10E60E08DEE93E00E94F10E61E179
:1025B0008FEF93E00E94F10E88EE93E00E94F30EFD
:1025C0008093070189EE93E00E94F30E182F809309
:1025D00044068AEE93E00E94F30E809343068BEE4E
:1025E00093E00E94F30E8456809308018CEE93E0F2
:1025F0000E94F30E91E0811101C090E090933B06A0
:102600008DEE93E00E94F30E80934506812F0E9489
:10261000F50E0E94480B109280001092810080916C
:102620008100846080938100809181008D7F809300
:102630008100809181008E7F809381008091810054
:10264000886080938100109285001092840089E058
:102650009DE39093890080938800809106018823F0
:1026600009F4DAC080916F00826080936F007894E3
:10267000E0919B07F0919C0782E08083E0919707AF
:10268000F09198071082E0919907F0919A071082D3
:102690001092A307E0919F07F091A00786E0808346
:1026A000E0919D07F0919E07808180618083E09199
:1026B0009D07F0919E07808188608083E0919D074F
:1026C000F0919E07808180688083E0919D07F09162
:1026D0009E0780818F7D808380E580932808F0EAC3
:1026E000EF2EF6E0FF2E80E00FEF11E0180F898348
:1026F0000A830B83B701CE0101960E94F3030E9467
:10270000A5060E94950C6AE070E080E090E00E94CF
:10271000670633E0E30EF11C812F183431F7E5E74B
:10272000EE2EE7E0FE2E0FEFDD24D394D10E1983B9
:102730000A830B83B701CE0101960E94F3030E9426
:10274000A5060E94950C6AE070E080E090E00E948F
:10275000670643E0E41AF1081D2D103929F700E956
:1027600010E00E94950C0E94A50601501109C9F7BE
:102770008FEF8093280864E8E62E61E0F62E0CE7E0
:1027800011E0CC24CA9472EFD72ED801ED918D01BF
:102790008E2F90E0FC01EE0FFF1FE80FF91FE056AF
:1027A000F94FC0821182D2820E94A50664E170E0D6
:1027B00080E090E00E946706E016F10631F7ECE752
:1027C000F1E0FFABEEAB33E320E3AEA9BFA9ED919F
:1027D000BFABAEAB8E2F90E0FC01EE0FFF1FE80FFA
:1027E000F91FE056F94F3083118222830A171B0725
:1027F00061F78CE00E94AF05892B11F00C942E2418
:1028000020E03FEF40E050E06AE081EF91E00E947D
:10281000F40C0E94A506EDCF80916F008D7F25CF2F
:102820000E94E20322E330E0DC010E94C9262FEF80
:1028300033E040E050E00E942626209399060C9455
:102840006124AA2311F40C94B6248A2E992481942D
:102850000CF490949401032E000C440B550B0E9431
:102860005826CA01B9010C94B6248CED95E0A0E07D
:10287000B0E00C94C1248D7F0C94D62440914C057B
:1028800050914D0560914E0570914F0546015701DD
:10289000841A950AA60AB70AB501A401483E534016
:1028A0006105710530F481E0892780933F0610921D
:1028B0009A06809159052091500590913F069130DC
:1028C00009F4E2C1821709F474C08093500588238B
:1028D00029F1C0924C05D0924D05E0924E05F09240
:1028E0004F0580914C0590914D05A0914E05B091FA
:1028F0004F0546015701881A990AAA0ABB0AD50151
:10290000C401883E9340A105B10520F182E0809387
:10291000930620C0882369F20C94262580914C05EB
:1029200090914D05A0914E05B0914F05B701A601BC
:10293000481B590B6A0B7B0BDB01CA01883E934095
:10294000A105B10538F480919A06813079F181E0D2
:1029500080939A0680915A0590915105891709F440
:102960007DC080935105882339F1C0924C05D092E7
:102970004D05E0924E05F0924F0580914C059091E7
:102980004D05A0914E05B0914F05B701A601481B1A
:10299000590B6A0B7B0BDB01CA01883E9340A105F2
:1029A000B10570F184E0809393062AC010929A06D4
:1029B000D1CF882379F295CF80914C0590914D0528
:1029C000A0914E05B0914F05A7019601281B390B28
:1029D0004A0B5B0BDA01C901883E9340A105B105A2
:1029E00078F480919206811104C080914B05809308
:1029F000920680919A06823079F182E080939A065D
:102A000080915B0590915205891709F484C08093E9
:102A10005205882331F1C0924C05D0924D05E092C9
:102A20004E05F0924F0580914C0590914D05A09177
:102A30004E05B0914F05A7019601281B390B4A0B93
:102A40005B0BDA01C901883E9340A105B10538F15D
:102A500087E08093930623C080E0D0CF882381F263
:102A60008CCF80914C0590914D05A0914E05B09171
:102A70004F0546015701881A990AAA0ABB0AD501CF
:102A8000C401883E9340A105B10548F410929A060E
:102A900080919206811180934B051092920680914D
:102AA0005C059091530589138093530580915D05D2
:102AB0009091540589138093540580915E059091FF
:102AC0005505891709F4DCC080935505882339F131
:102AD000C0924C05D0924D05E0924E05F0924F0504
:102AE00080914C0590914D05A0914E05B0914F05F8
:102AF000C81AD90AEA0AFB0A58EEC51653E0D506E9
:102B0000E104F10450F18AE080939306809106017C
:102B10008093400622C0882309F4C1CF84CF8091DE
:102B20004C0590914D05A0914E05B0914F05C81AE6
:102B3000D90AEA0AFB0A48EEC41643E0D406E104C7
:102B4000F10458F48091060191E0892780930601F1
:102B5000882319F08FE3809394068091600590910B
:102B6000570589138093570580919B068F5F80934B
:102B70009B060E94ED0D10913B068091630518178E
:102B800061F01093630580916205112309F4B8C1C7
:102B90008860809362050E94DB0D112359F08091BB
:102BA0006205909106019111ADC184608093620528
:102BB0000E94DB0D8DE00E94AF05892B19F08FE399
:102BC000809394068091640590919A06981771F00D
:102BD000882341F0843009F4AEC108F095C18330F8
:102BE00009F4A2C180919A068093640500919A0627
:102BF0000E9499062B013C01109194068CE00E94E2
:102C0000AF0599AF88AF31E03CAF892B09F41CAE1A
:102C1000023009F403C508F099C1002309F494C2F5
:102C2000013009F478C48091B2051CAD181709F47D
:102C3000D1C71093B20588AC99AC892811F00C94D7
:102C4000E8254092AE055092AF056092B0057092B3
:102C5000B1058091AE059091AF05A091B005B091FE
:102C6000B105481A590A6A0A7B0A08EE401603E0C1
:102C700050066104710410F40C94A82586E047C343
:102C8000882309F46ACF2CCF821779F060913B0634
:102C900080935005882309F45AC0C0924C05D09205
:102CA0004D05E0924E05F0924F0560913B068091F4
:102CB00059058823D1F080914C0590914D05A09144
:102CC0004E05B0914F0546015701881A990AAA0A84
:102CD000BB0AD501C401883E9340A105B10528F087
:102CE0008BE0809393066093400680915B05909102
:102CF0005205891709F496C090919A06809352055F
:102D0000882309F444C0C0924C05D0924D05E0924E
:102D10004E05F0924F0580914C0590914D05A09184
:102D20004E05B0914F0546015701881A990AAA0A23
:102D3000BB0AD501C401883E9340A105B10508F442
:102D400041C08CE080939306609340063BC00091A5
:102D50004C0510914D0520914E0530914F054601CF
:102D60005701801A910AA20AB30A95018401083E0C
:102D700013402105310508F0B8CF692760933B0661
:102D80008CEE93E00E94F10E10929A068ECF009185
:102D90004C0510914D0520914E0530914F0546018F
:102DA0005701801A910AA20AB30A95018401083ECC
:102DB00013402105310530F484E0943009F480E0BB
:102DC00080939A0680915D0590915405891709F4C6
:102DD00076C090919A0680935405882331F1C09271
:102DE0004C05D0924D05E0924E05F0924F05809132
:102DF0004C0590914D05A0914E05B0914F054601AF
:102E00005701881A990AAA0ABB0AD501C401883E4B
:102E10009340A105B10520F183E18093930660936F
:102E200040061EC0882371F276CF00914C051091A8
:102E30004D0520914E0530914F0546015701801AEE
:102E4000910AA20AB30A95018401083E13402105A4
:102E5000310530F485E0953009F480E080939A06DE
:102E60008091600590915705891709F446C09091AB
:102E70009A0680935705882329F1C0924C05D09279
:102E80004D05E0924E05F0924F0580914C059091D2
:102E90004D05A0914E05B0914F05C81AD90AEA0A0E
:102EA000FB0A28EEC21623E0D206E104F10408F47E
:102EB0005BCE84E1809393066093400655CE8823D1
:102EC00079F295CF40914C0550914D0560914E059A
:102ED00070914F05C41AD50AE60AF70A18EEC11612
:102EE00013E0D106E104F10408F03ECE86E096300E
:102EF00009F480E080939A0637CE8111C6CF34CE94
:102F0000877F47CE8B7F52CE8530D9F0863009F04F
:102F100069CE6091440689EE93E00E94F10E6091C3
:102F200043068AEE93E004C06091070188EE93E0C7
:102F30000E94F10E57CE609108016C598BEE93E020
:102F4000F7CF609145068DEE93E0F2CF053009F49E
:102F500020C4063009F4C0C4043009F064CE30E067
:102F600020E043E059E0822F2C30310509F4B0C352
:102F7000642F0E949926D901849FA019B1091124B8
:102F80005A9FF0015B9FF00D1124E55DFE4FE80FA5
:102F9000F11DE081F0E0E650FA4F80812F5F3F4F56
:102FA000882309F39091B405981709F4ADC3809371
:102FB000B405882341F04092B5055092B605609261
:102FC000B7057092B8059091080119160CF49CC3CE
:102FD000882309F47FC38091B5059091B605A0912F
:102FE000B705B091B805B301A201481B590B6A0B94
:102FF0007B0BDB01CA01883E9340A105B10508F0B7
:1030000086C330E020E043E059E0822F2C303105C8
:1030100009F481C3642F0E949926D901849FA019C5
:10302000B109112414965A9FF0015B9FF00D1124F1
:10303000E55DFE4FE80FF11DE081F0E0E650FA4F4C
:1030400080812F5F3F4F882301F39091B30598173C
:1030500009F47CC38093B305882341F04092B50501
:103060005092B6056092B7057092B805909108012C
:1030700097FF02C00C940726882309F44EC3809161
:10308000B5059091B605A091B705B091B805A3011B
:103090009201281B390B4A0B5B0BDA01C901883EF0
:1030A0009340A105B10508F054C38091080187FF42
:1030B00054C33FEFC0909A064091B5055091B605B4
:1030C0006091B7057091B805D09040060091080155
:1030D000F0909306EBE2F1E0E32E20E0878190E0B0
:1030E000DC01A650BA4F1C91BB24B394B20EDC0194
:1030F000A754BA4F8C91181709F431C31C931111BE
:1031000044C3D301C201841B950BA60BB70B883EA9
:103110009340A105B10510F40E2DC12C3996E30E94
:103120002B2D2830D9F64093B5055093B605609302
:10313000B7057093B805F0929306C0929A06D092A4
:103140004006009308016FCDE0919206B09193067E
:10315000B8AB8090B5059090B605A090B705B0903B
:10316000B8058EA29FA2A8A6B9A6E11106C1EAEFF2
:10317000F5E0FEAFEDAFE9EBF5E0FBA7EAA7912C98
:10318000812C187F26961FAF2697A82DEDADFEAD9A
:103190008191FEAFEDAFEAA5FBA59191FBA7EAA750
:1031A000891709F4CFC0319780838111E1C0B30141
:1031B000A201AEA0BFA0C8A4D9A44A195B096C099A
:1031C0007D09483E53406105710508F05DC0A69534
:1031D000A695A695F40118E0A19FE019F109112424
:1031E00043E0EE0FFF1F4A95E1F7E65BF94F2080C1
:1031F0003180B281BCA7A380AEA6B480BAAAC58034
:10320000CCAAD680DAAEE780EBAE2696FFAC269746
:10321000AF0D21E030E040E050E060E070E090E091
:103220000A2F0E94D02659016A017B01182FB92F5D
:1032300091014CA55EA56AA97CA98AAD9BAD0E94AF
:10324000EB26217030E040E050E060E070E080E08C
:1032500090E0A0E00E94062709F05DC0A228B328F4
:103260000CA5C02A2EA5D22A3AA9E32A4CA9F42AF1
:103270005AAD152B6BADB62BA082B182C282D38220
:10328000E482F5821683B7832FEF821A920A30E424
:103290008316910409F079CF8EA09FA0A8A4B9A4A9
:1032A0008092B5059092B605A092B705B092B80588
:1032B00098A8909293068091B2058CAC881609F478
:1032C00083C48092B205A8ACB9ACAB2811F00C94C1
:1032D00091254092AE055092AF056092B005709274
:1032E000B1058091AE059091AF05A091B005B09168
:1032F000B105481A590A6A0A7B0A88E008EE4016A6
:1033000003E050066104710410F40C94A825809326
:1033100093060C94A825A094B094C094D094E09403
:10332000F0941095B095A220B3207CA5C7228EA55D
:10333000D8229AA9E922ACA9FA220AAD10232BAD12
:10334000B2239ACF882309F49FCFD301C201AEA044
:10335000BFA0C8A4D9A48A199B09AC09BD09883E9D
:103360009340A105B10508F48FCF11E018AB8CCFC5
:103370004EA25FA268A679A6E8CF0AEF15E01EAFBD
:103380000DAF29EB35E03BA72AA7912C812CE1500A
:10339000FF0B33E0EE0FFF1F3A95E1F7E65BF94FC5
:1033A000ADADBEAD2D91BEAFADAFAAA5BBA58D9104
:1033B000BBA7AAA7281709F495C0CD010197DC0186
:1033C0002C932111A3C0B301A201AEA0BFA0C8A439
:1033D000D9A44A195B096C097D09483E534061052F
:1033E000710508F05FC0A82DA695A695A69520802A
:1033F000318012811CA7B381BEA7A480AAAAB58080
:10340000BCAAC680CAAED780DBAE940108E0A09FFC
:1034100020193109112419E0129FC001139F900D4A
:103420001124855D9E4FA80FB92FB11DAC9121E0ED
:1034300030E040E050E060E070E080E090E00A2F93
:103440000E94D02659016A017B01182FB92F9101E2
:103450004CA55EA56AA97CA98AAD9BAD0E94EB260E
:10346000217030E040E050E060E070E080E090E00B
:10347000A0E00E940627F9F4A228B3282CA5C22AAE
:103480003EA5D32A4AA9E42A5CA9F52A6AAD162BDF
:103490007BADB72BA082B182C282D382E482F58257
:1034A0001683B7832FEF821A920A30E483169104B1
:1034B00009F076CFF1CEA094B094C094D094E0946B
:1034C000F0941095B095A220B3208CA5C8229EA59B
:1034D000D922AAA9EA220CA9F0222AAD12233BADD7
:1034E000B323D8CF2223F1F2D301C201AEA0BFA0F3
:1034F000C8A4D9A48A199B09AC09BD09883E934088
:10350000A105B10578F211E018ABCCCF4EA25FA2B5
:1035100068A679A6E9CFC090B505D090B605E09031
:10352000B705F090B80590900501A0904006109165
:1035300093069AEF292E95E0392EA9EBB5E090E09D
:1035400080E029E0B22EF10131911F016D91361713
:1035500009F461C0FD0131973083332329F1E82F4D
:10356000E695E695E695BC01F8E0EF9F60197109D4
:103570001124B69E9001B79E300D1124255D3E4F5B
:10358000E20FF32FF11DA080A39473016201B30138
:10359000A2014C195D096E097F09483E534061053F
:1035A000710518F113E021C0B301A2014C195D09A6
:1035B0006E097F09483E534061057105B0F4E82F5C
:1035C000E695E695E695BC0148E0E49F601971092F
:1035D0001124B69E9001B79E300D1124255D3E4FFB
:1035E000E20FF32FF11D908000E0019680349105E9
:1035F00009F0A9CFC092B505D092B605E092B70503
:10360000F092B805109393069092050100939A06E4
:10361000A092400608CB3111BACFE7CF9091920625
:103620004091B5055091B6056091B7057091B80508
:10363000F0904006109193068AEFC82E85E0D82EB0
:10364000E9EBF5E080E0D601ED906D0121918F5F0F
:10365000E21649F19F0121503109D901EC92E110A4
:1036600033C053014201841A950AA60AB70AB8EE7C
:103670008B16B3E09B06A104B10410F40C9403264E
:10368000883009F7909392064093B5055093B6059C
:103690006093B7057093B8051093930600939A064C
:1036A000F0924006C0CAEE2059F353014201841A39
:1036B000950AA60AB70A28EE821623E09206A1040C
:1036C000B104F0F215E0DCCFF82EB301A201EDCF8A
:1036D00080E068CC4091B5055091B6056091B70582
:1036E0007091B80553014201841A950AA60AB70AD7
:1036F000B501A401483E53406105710508F081CC35
:103700009195909308017DCC811165CC7ACC8DE0A8
:103710008093930676CC80E098CC4091B50550918B
:10372000B6056091B7057091B80553014201841A3E
:10373000950AA60AB70AB501A401483E534061059F
:10374000710558F4919590930801AFCC811197CCF5
:10375000ACCC8EE080939306A8CC31E0ABCC1123A7
:1037600009F4DCCCD301C201841B950BA60BB70B6B
:10377000883E9340A105B10508F4D0CCBFE0FB2EF4
:1037800007FFCCCCA0E1FA2EC9CCD22EB301A20106
:10379000E9CF8091B5059091B605A091B705B0919C
:1037A000B8052091450640914006509193060BE2E2
:1037B00011E030E0B8016B5271407B01F80161917A
:1037C0008F01C62ED12CB60166507A4FFB01608165
:1037D0003F5FF601E754FA4F7081671709F451C053
:1037E0006083611160C053014201881A990AAA0AD4
:1037F000BB0AF8EE8F16F3E09F06A104B10448F46B
:1038000061E070E00E2C01C0660F0A94EAF7609543
:103810002623F801C6ACD12CB60166507A4FFB01C5
:103820006081F601E754FA4F7081671709F43FC0D1
:10383000608361114DC053014201881A990AAA0A96
:10384000BB0AF8EE8F16F3E09F06A104B10438F42A
:1038500061E070E001C0660FEA94EAF7262B383089
:1038600009F0A8CF209345068093B5059093B6053F
:10387000A093B705B093B8055093930640934006C4
:10388000D2C9662331F253014201881A990AAA0A61
:10389000BB0A68EE861663E09606A104B10408F43C
:1038A000B8CF51E1B6CF432FD301C201ECCF66238D
:1038B000B1F273016201C81AD90AEA0AFB0A68EE7A
:1038C000C61663E0D606E104F10448F252E1C7CF20
:1038D000432FD301C201EDCF19AA18AA1FA61EA615
:1038E0008CED9FEF9BA78AA770E3872E71E0972E40
:1038F000AAA4BBA48A189B089FA28EA218A9110F84
:10390000312C212CEEA1FFA1CAA4DBA4EC0DFD1DDE
:10391000EEA4FFA4EE0DFF1D8081882E912C9DA6A4
:103920008CA6F401E650FA4F8081F401E754FA4F77
:103930009081891781F08083882309F48DC040929B
:10394000B5055092B6056092B7057092B80581E052
:10395000810F80934006ECA5FDA5E650FA4F8081CB
:103960008823C1F08091B5059091B605A091B70567
:10397000B091B80553014201881A990AAA0ABB0AF4
:10398000D501C401883E9340A105B10518F025E199
:1039900020939306EEA0FFA0D701EC91F0E0DF01A9
:1039A000A650BA4F8C91E754FA4F908197012F5F40
:1039B0003F4F6901891781F08083882309F4CDC0C6
:1039C0004092B5055092B6056092B7057092B80561
:1039D00081E0810F80934006DFA2CEA2D701EC9157
:1039E000F0E0E650FA4F80818823C1F08091B50560
:1039F0009091B605A091B705B091B8055301420169
:103A0000881A990AAA0ABB0AD501C401883E9340C4
:103A1000A105B10518F026E1209393063FEF231A84
:103A2000330A1C5F43E02416310409F06BCF6AA50A
:103A30007BA5625171097BA76AA78EA59FA54296B7
:103A40009FA78EA7A8A9B9A9119709F4ECC8A1E06E
:103A5000B0E0B9ABA8AB48CF8091B5059091B60561
:103A6000A091B705B091B80563015201A81AB90A2F
:103A7000CA0ADB0AD601C501883E9340A105B105FB
:103A800008F088CF21E8129FC0011124AC014058F2
:103A90005F4F5BAB4AAB5AE4C52E56E0D52E65E6C8
:103AA000E62E65E0F62EBC01655675407DAB6CAB2D
:103AB0008CA89DA88E0C9F1CB12CA12CD6012C91FA
:103AC00011963C91119712964C91129713965C9116
:103AD000139714966C91149715967C9115971696DA
:103AE0008C91169717969C910A2D0E94EB26622FB7
:103AF000C4010E94F10EF70120813181428153817E
:103B000064817581868197810E94EB26622FC401B2
:103B1000805C9F4F0E94F10E609105018AA99BA9CC
:103B20000E94F10EF8E0AF0EB11C0FEF801A900A60
:103B300020E4A216B10411F638E0C30ED11C48E00F
:103B4000E40EF11C65EA75E06E157F0509F0B0CF53
:103B50001093440610929A06FECE8091B50590917E
:103B6000B605A091B705B091B805B301A201481BF5
:103B7000590B6A0B7B0BDB01CA01883E9340A10500
:103B8000B10510F00C940C26809106018823A1F059
:103B900020910401C101880F991F88A899A8880D58
:103BA000991D880F991F2817190649F0812F0E9427
:103BB000F50E1093430610CF812F0E94F50E0E9440
:103BC000480B10929A06F5CFC8ACD9ACCD2809F4B1
:103BD00088CBBEC7A8ACB9ACAB2809F43AC8B8C703
:103BE000E0919206E111D9C085E8C82E81E0D82E77
:103BF0000EA1087FB02E712CAAE4B6E0F12CE12CC6
:103C0000AB2CA10E2C9111963C91119712964C91D0
:103C1000129713965C91139714966C9114971596BE
:103C20007C91159716968C91169717969C911797DD
:103C30001896F601EE0DFF1DE081F0E04F01880CB3
:103C4000991CE80DF91DE056F94F10820A2D0E94CB
:103C5000EB2621702FAF21961FAE219721968EACB7
:103C60009FAC2197789CA001799C500D5819112484
:103C7000518312820FEFE01AF00A28E0E216F104F5
:103C800009F61F5F39E0C30ED11C183009F0B4CF1C
:103C90000EA10770F9E00F9F80011124F12CE12C97
:103CA00083E0A82E9BEAD92EBB24BA9420EBC22E27
:103CB000F801EE0DFF1DEB57FE4F8081282F30E0FD
:103CC0008A9DC00111248056994FF901EE0FFF1F04
:103CD000E20FF31FE056F94F20812D9D212D112475
:103CE0002695208321812D9D212D11242695218328
:103CF00022812D9D212D1124269522832091940629
:103D00002695269526952E1508F4E2C019821A826A
:103D1000CB82BE016F5F7F4F0E94DC0C2FEFE21A57
:103D2000F20A38E0E316F10419F60E949906E091D0
:103D3000930620914106E21789F0E0934106EE23B5
:103D400009F440C310927A071092790760937B07B9
:103D500070937C0780937D0790937E07E73108F08E
:103D6000A9C4F0E0EA54F14E0C94BB26E42187226A
:103D700093229B22BB22C322CA22D222DA22E2222F
:103D8000EA22F922082310231823202327232E2395
:103D900035233C2344234C235323E150FF0B73E092
:103DA000EE0FFF1F7A95E1F7E65BF94F1081D180A6
:103DB000C280B380A480958086807780E5E82E2E2F
:103DC000E1E03E2EB0E0A0E0612C2D01F12CE12CD1
:103DD000F101EE0DFF1DE081F0E0CF01880F991F8A
:103DE000E80FF91FE056F94F1082212F3D2D4C2D81
:103DF0005B2D6A2D792D882D972D042D0E94EB26A1
:103E0000217022962FAF229723961FAE23972396D9
:103E10006EAD7FAD2397669EA001679E500D561B29
:103E20001124518312827FEFE71AF70A88E0480EC7
:103E3000511C98E0E916F10459F61196E9E02E0EAE
:103E4000311CA830B10509F6EEA1E695E695E69598
:103E50008EA0282D30E008E0E09F201931091124C0
:103E600049E0429FC001439F900D11248B579E4F04
:103E7000E80FF92FF11D8081282F30E0F901EE0FB6
:103E8000FF1FE20FF31FE056F94F20813BEA239F0B
:103E9000212D1124269520832181239F212D11245A
:103EA000269521839281939F912D1124969592833B
:103EB0009FEF99831A821B8213E0819FC001112416
:103EC000BE016F5F7F4F8056994F0E94DC0C2DCF53
:103ED000B9821A821B821DCF0E948A0C1AE4E12E3D
:103EE00016E0F12E08E0302E412C85E1582E13E02B
:103EF000B5E88B2EB1E09B2ED12CC12C3601B12C14
:103F0000A12CD7012C9111963C91119712964C91AE
:103F1000129713965C91139714966C9114971596BB
:103F20007C91159716968C91169717969C91062D55
:103F30000E94EB26217024962FAF249725961FAE62
:103F400025972596EEADFFAD2597E49DC001E59D33
:103F5000900DF49D900D1124092E000CAA0BBB0BA3
:103F600019829A831B82F401EA0DFB1D8081819FD7
:103F7000C0011124BE016F5F7F4F8056994F0E9490
:103F8000DC0CFFEFAF1ABF0A08E0600E711C28E0DE
:103F9000A216B10409F0B5CF3FEFC31AD30A49E026
:103FA000840E911C58E0C516D10409F0A7CF3A94AD
:103FB00068E0E60EF11C31109BCF80EB89831A82FA
:103FC0001B82EEA1E695E695E6958EA0282D30E0C1
:103FD00008E0E09F20193109112409E0029FC00187
:103FE000039F900D11248B579E4FE80FF92FF11D61
:103FF0008081819FC0011124BE016F5F7F4F805679
:10400000994F0E94DC0C8FEF898381E58A831B82A4
:1040100080910501E82FE695E695E69590E028E089
:10402000E29F801991091124089F9001099F300D8A
:1040300011242B573E4FE20FF32FF11D80813DCF0E
:104040000E948A0C40E061E084E992E00E945903FA
:10405000F5E8EF2EF1E0FF2E00E0CC24CA94A3E0B7
:10406000DA2E8091920681508117A9F088E70983A2
:10407000CA828B83D7016D917D016D9DB0011124A2
:104080006056794FCE0101960E94F3031F5F015ED7
:10409000183039F74ACE8FEFEACF0E948A0C809110
:1040A000070128E737E0E0EAF6E010821182128289
:1040B00033962E173F07C9F71F928F9389E092E03E
:1040C0009F938F93CE0101969F938F930E943727E2
:1040D000C12CD12C7601CA9401E021E030E046E009
:1040E00050E06B8182EC90E00E94A90BC12CD12C96
:1040F0007601DA9421E030E043E050E06A8182EC1E
:1041000090E00E94A90BC12CD12C7601EA9421E009
:1041100030E050E040E0698182EC90E00E94A90B21
:104120008091460690914706A0914806B0914906B5
:10413000881A990AAA0ABB0A0F900F900F900F9045
:104140000F900F90B0E98B16B1E09B06A104B1046B
:1041500008F4EBCD10929A06E8CD0E948A0C41E05B
:1041600060E088E692E00E94590340E064E080E36A
:1041700092E00E9459031091080121E044E064E0BC
:1041800017FD4AC080E00E94140324E041E060E093
:1041900083E00E9414032BECE22E21E0F22E3FEC90
:1041A000832E99249A94A92CB92C07E011507724D6
:1041B0007A9443E2642E53E0C52E98E7D92E01137A
:1041C00002C0DD24DA94C501B40127E030E040E00C
:1041D00050E00E942626295F3F4F4F4F5F4F269D9C
:1041E000202D112429837A82DB82F70160816C9D66
:1041F000B00111246056794FCE0101960E94F3035D
:104200000150F7E08F0E911CA11CB11C29E0E21AAD
:10421000F1080F3F91F689CD84E00E94140324E059
:1042200041E060E087E00E9414031195B4CF0E9442
:104230008A0C41E061E088E991E00E9459036091B5
:10424000450670E0A5E8B1E050E040E0DD24DA94F6
:104250008FE0C82EED910E2F10E0DE968C91DE9748
:1042600090E0F801EE0FFF1F9C01220F331F7B012E
:10427000042E02C0F594E7940A94E2F7E00FF11FD0
:10428000E056F94F1082E0FE10C0C1821282820F08
:10429000931FFC01E056F94F10821182D2824F5FCA
:1042A0005F4F48305105B1F640CDD1821282820F66
:1042B000931FFC01E056F94F10821182C282EFCFAA
:1042C0000E948A0C40E060E080EF90E00E94590379
:1042D000712C612C912C812C6CEDC62EDD24DA948E
:1042E00055245A944AE8242E41E0342E2C183D08D7
:1042F000530153E0452EF601E20DF31DE80DF91DC3
:10430000E0818E2F90E020914406FC01EE0FFF1F0C
:10431000E80FF91FE056F94F2A151B04C9F5508222
:1043200011821282D1010D911D0110E0809143068E
:104330007801EE0CFF1C8A151B04B1F58091040175
:104340008A151B0441F50E94D30A80914206589EAB
:10435000C00111240E0D1F1DF801E056F94F108207
:10436000118282834A94E4E0AE0EB11C4110C3CFA7
:10437000F2E06F0E711C02E1C01AD10812E1810E49
:10438000911C28EBC2162FEFD20609F0ABCFCDCC93
:1043900030E33083C5CF0E0D1F1DF801E056F94FF5
:1043A000108211825282DECF0E0D1F1DF801E056E1
:1043B000F94F10821182B0E3B283D4CF8AEF809399
:1043C0009306B3CC0E948A0C809178078111F8C1C2
:1043D000ACE7B1E033E320E3ED918E2F90E0FC01F8
:1043E000EE0FFF1FE80FF91FE056F94F30831182DF
:1043F00022838EA89FA8A815B90571F780913F0662
:1044000090913E06891709F43DC380933E06ACE7C0
:10441000B1E0882309F461C13DE32FE0ED918E2FD7
:1044200090E0FC01EE0FFF1FE80FF91FE056F94F77
:10443000308311822283AEA8BFA8AA15BB0571F7ED
:10444000ACE7B1E03DE32FE0ED918E2F90E0FC0171
:10445000EE0FFF1FE80FF91FE056F94F308311826E
:1044600022838EA89FA8A815B90571F710919A0606
:1044700080913B06882309F444C3111142C38FEF96
:10448000809360071092610780E480936207209117
:10449000080127FD219506E9143009F40FEF30E0FB
:1044A00050E040E02150310941095109ACE0BFEF33
:1044B0000E94532627E030E040E050E00E9426268C
:1044C0002C503F4F4F4F5F4F29838FEF8A830B83D1
:1044D00066E677E0CE0101960E94F30380E49FEF49
:1044E000153011F08FE09DE390936C0710926D07EB
:1044F00080936E0780E49FEF163011F08FE09DE30C
:104500009093750710927607809377074CC120E04F
:104510003DE94FEF5BE06AE08EE092E00E94F40C30
:104520001092930651CF20E03DE94FEF5BE06AE047
:1045300080E292E0F3CF809140061F928F9385E353
:1045400092E09F938F938E010F5F1F4F1F930F93E6
:104550000E94372720E03DE94FEF5BE06AE0C801A9
:104560000E94F40C109293060F900F900F900F90F2
:104570000F900F9029CF20E03DE94FEF5BE06AE01C
:1045800080E592E0CBCF809140061F928F938CE61E
:1045900092E0D7CF20E03DE94FEF5BE06AE08FE7A4
:1045A00092E0BCCF20E03DE94FEF5BE06AE081E9BB
:1045B00092E0B4CF20E03DE94FEF5BE06AE083EAB0
:1045C00092E0ACCF20E03DE94FEF5BE06AE08CEB9E
:1045D00092E0A4CF8091400620E03DE94FEF5BE000
:1045E0006AE0882319F081EE92E098CF8DEE92E098
:1045F00095CF8091400620E03DE94FEF5BE06AE017
:10460000882319F08AEF92E089CF8EE093E086CF7D
:1046100020E03DE94FEF5BE06AE082E293E07ECF8D
:1046200020E03DE94FEF5BE06AE082E493E076CF83
:1046300020E03DE94FEF5BE06AE088E593E06ECF74
:10464000809140061F928F938CE693E07ACF809101
:1046500040061F928F9382E893E073CF80914006CB
:104660001F928F9386E993E06CCF809140061F9252
:104670008F9386EB93E065CF20E03DE94FEF5BE061
:104680006AE083ED93E04ACF20E03DE94FEF5BE045
:104690006AE08BEF93E042CF809140061F928F93A8
:1046A00082E194E04ECF809140061F928F9386E284
:1046B00094E047CF1F92EF938CE394E09F938F9306
:1046C0008E010F5F1F4F1F930F930E94372720E02B
:1046D00030E04FEF50E06FE042CF33E320E3ED9165
:1046E0008E2F90E0FC01EE0FFF1FE80FF91FE05640
:1046F000F94F3083118222838EA89FA8A815B9058F
:1047000071F7ACE7B1E033E320E3ED918E2F90E059
:10471000FC01EE0FFF1FE80FF91FE056F94F308341
:1047200011822283AEA8BFA8AA15BB0571F780919C
:104730009A06813009F0AAC18FEF8093600710922A
:10474000610782EF8093620780910601882309F454
:10475000A4C10E94D30AA0913D06B0E020E03FEF43
:104760004CEC50E00E94452680936F0770937007D1
:10477000109271078091920690919A069D7F09F0A0
:10478000A7C181118FC183E38093630710926407EF
:1047900080E3809365078FEF809366071092670729
:1047A00082EF8093680780913F06882309F4B0C1A7
:1047B0008FEF8093720789E58093730710927407D7
:1047C0001092780798AC909228080E94A5060E9443
:1047D000420600919C0610919D0620919E06309104
:1047E0009F065B016C01A01AB10AC20AD30AA60196
:1047F000950119A28E010F5D1F4FCA01B9012AE070
:1048000030E040E050E00E945826605DD8016E9391
:104810008D01211531054105510579F7109769F092
:10482000FD0101900020E9F73197AF014A1B5B0BB6
:10483000BD018BE897E00E94790442E050E06CE70C
:1048400074E08BE897E00E94790480E090E0892B87
:1048500029F00E94E30481110E9400000E94420698
:1048600060939C0670939D0680939E0690939F068E
:1048700080919B06803410F010929B0610919B064D
:10488000012F0770E02EF12C612F617084E00E94EF
:10489000D805B70175956795617085E00E94D805C8
:1048A000B701759567957595679586E00E94D8055F
:1048B000013011F40C94101410F0053010F40E9423
:1048C000E2038AE00E94AF057C01A02FB0E029EF4F
:1048D0003FEF4FEF5FEF0E94452627E030E040E0DA
:1048E00050E00E942626295F3F4F4F4F5F4F275AC7
:1048F0003A4F81E0EF2809F080E0F90180831695B6
:104900001695169580914A051817A1F010934A053F
:10491000111108C061E082E10E94D80560E082E1E7
:104920000E94D80561E088E00E94D80560E088E038
:104930000E94D805A091080120910701622F70E024
:1049400090E080E0109106011A1614F00C942114E6
:1049500030E00A2E000CBB0B0E94C9266D3DF5E02D
:104960007F078105910510F00C943514DC01CB0113
:104970008E319105A105B10520F48EE190E0A0E013
:10498000B0E02227382F492F5A2F60E078E38CE9D6
:104990009CE10E94582630938900209388008091E2
:1049A0006F00112311F40C943B14826080936F000C
:1049B000E0909B0687E00E94AF058C01FE2CF694E8
:1049C000F694F6942E2D30E048E0F49E201931093B
:1049D0001124A9EFBFEF0E94C12627E030E040E09C
:1049E00050E00E942626295F3F4F4F4F5F4F89E0DE
:1049F000829FF001839FF00D1124E55DFE4FEF0DC6
:104A0000F11DE081F0E0E650FA4F81E0012B09F45E
:104A100080E080830E9499066B017C0180915F0594
:104A200090915605891711F40C948A1490913F06C1
:104A300080935605882311F40C943E14C0924C05C3
:104A4000D0924D05E0924E05F0924F0580914C05B5
:104A500090914D05A0914E05B0914F05A70196018B
:104A6000281B390B4A0B5B0BDA01C901883E9340C6
:104A7000A105B10510F40C94591489E080939306B4
:104A80000C945914813009F4DBCC3BCE3093600791
:104A9000109261072093620757CE0E94D30AA0911B
:104AA0003C065BCE9FE1899F802D11248F51898325
:104AB0008FEF8A838B8363E677E0CE0101960E94B5
:104AC000F30383E3809366071092670780E369CE60
:104AD00081110DC093E3909363071092640780E304
:104AE0008093650790936607109267075ACE9FE1FF
:104AF000899F802D11248F5189838FEF8A8386E9C6
:104B0000D9CF8DE380936007109261078FE0BDCC11
:104B100083E3809372071092730780E38093740796
:104B20004FCE8091AE059091AF05A091B005B091A8
:104B3000B105481A590A6A0A7B0AB8EE4B16B3E067
:104B40005B066104710420F48091AD0580939A06A0
:104B50001091990618AF0E94990600919506109140
:104B6000960620919706309198064B015C01801AB9
:104B7000910AA20AB30A95018401013211052105A7
:104B8000310508F424CE60939506709396068093C1
:104B900097069093980600919A060E9499064B01F9
:104BA0005C01109193061111C0C8C0909406CEA26A
:104BB000073008F003CCE02FF0E0EF51FA4D0C94F1
:104BC000BB26F01D6C1F20204D20AD201721602139
:104BD0008091AE059091AF05A091B005B091B1055F
:104BE000481A590A6A0A7B0AE8EE4E16E3E05E06A6
:104BF0006104710408F0ACCF80919A068093AD05F2
:104C000010929A06A5CF982F00E00C94401B8111BA
:104C10000C943F180C9459183FA32EA30C940E1D0E
:104C2000F999FECF92BD81BDF89A992780B5089574
:104C3000262FF999FECF1FBA92BD81BD20BD0FB6B8
:104C4000F894FA9AF99A0FBE01960895052E97FBEB
:104C50001EF400940E943D2657FD07D00E9458265E
:104C600007FC03D04EF40C943D26509540953095AA
:104C700021953F4F4F4F5F4F0895909580957095C8
:104C800061957F4F8F4F9F4F08950E947A26A59F71
:104C9000900DB49F900DA49F800D911D1124089537
:104CA000B7FF0C9445260E944526821B930B08955E
:104CB000A1E21A2EAA1BBB1BFD010DC0AA1FBB1F20
:104CC000EE1FFF1FA217B307E407F50720F0A21B92
:104CD000B30BE40BF50B661F771F881F991F1A94FF
:104CE00069F760957095809590959B01AC01BD0129
:104CF000CF010895A29FB001B39FC001A39F700D83
:104D0000811D1124911DB29F700D811D1124911DD3
:104D10000895DB018F939F930E944526BF91AF9129
:104D2000A29F800D911DA39F900DB29F900D112405
:104D3000089587FB082E062687FD819567FD6195FE
:104D40000E9412270EF4919507FC8195089597FB18
:104D5000072E16F4009407D077FD09D00E941E2775
:104D600007FC05D03EF4909581959F4F089570956E
:104D700061957F4F0895EE0FFF1F0590F491E02D90
:104D800009940E947A26332312F48A1B9B0B0C94FD
:104D9000CB260E947A26B7FF0895821B930B0895B5
:104DA000002E083090F0982F872F762F652F542FE4
:104DB000432F322F22270850F4CF220F331F441FD6
:104DC000551F661F771F881F991F0A95B2F7002D80
:104DD000089597FD1094002E083098F00850232F66
:104DE000342F452F562F672F782F892F912DF4CFF1
:104DF0001594979587957795679557954795379526
:104E000027950A95AAF71124002D08950024A7FDDF
:104E100000942A173005400550056005700580058F
:104E200090050895991B79E004C0991F961708F022
:104E3000961B881F7A95C9F780950895AA1BBB1BFE
:104E400051E107C0AA1FBB1FA617B70710F0A61B8A
:104E5000B70B881F991F5A95A9F780959095BC01AB
:104E6000CD01089581E090E0F8940C940F2AAEE013
:104E7000B0E0EDE3F7E20C94E6290D891E8986E0A7
:104E80008C831A8309838FEF9FE79E838D83AE0106
:104E9000475E5F4F6F89788DCE0101960E945A2739
:104EA0002F813885020F131FF80110822E96E4E03F
:104EB0000C94022AABE0B0E0E0E6F7E20C94D829CB
:104EC0007C013B018A01FC0117821682838181FFEC
:104ED000C8C1CE0101965C01F7019381F30193FDF6
:104EE000859193FF81913F01882309F453C1853255
:104EF00039F493FD859193FF81913F01853229F427
:104F0000B70190E00E944A29E7CF912C212C312C47
:104F1000FFE1F31538F08B3211F190F4803209F192
:104F2000833229F137FC3CC020ED280F2A3050F5A0
:104F300036FE20C08AE0989E200D1124922E06C0D5
:104F40008D3291F0803371F7689430F8F30193FD5E
:104F5000859193FF81913F018111DACF21C068943F
:104F600031F8689432F8F2CF689433F8EFCF689450
:104F700034F8ECCFEAE02E9E200D1124222E689406
:104F800035F8E4CF8E3229F436FC04C1689436F843
:104F9000DDCF8C3619F4689437F8D8CF8836B1F263
:104FA000982F9F7D95549330E0F08336A1F183379D
:104FB000C1F1833509F063C02801F2E04F0E511CA6
:104FC000F801C080D180692D70E036FC02C06FEF1F
:104FD0007FEFC6010E9434294C01689437F88201A2
:104FE0000AC00C5F1F4FFFE3F98388248394912C40
:104FF0006501E89437F833FE2DC0522C81149104DA
:1050000071F5552009F468CFB70180E290E00E9465
:105010004A295A94F6CFF801808189830E5F1F4F89
:10502000E4CF2801F2E04F0E511CF801C080D1807E
:10503000692D70E036FC02C06FEF7FEFC6010E9461
:105040003F294C018201D5CFB70180E290E00E9458
:105050004A292A942814190409F0B0F7CECFF60192
:1050600037FC859137FE81916F01B70190E00E9476
:105070004A2951105A94F1E08F1A9108BFCF843613
:1050800019F0893609F077C0F80137FE6BC06081EE
:105090007181828193810C5F1F4FF32DFF763F2E2C
:1050A00097FF09C090958095709561957F4F8F4FC0
:1050B0009F4F689437F82AE030E0A5010E947A29D2
:1050C000C82ECA188C2C432C36FE0CC0E89440F82D
:1050D000C91440F434FE05C032FC03C0F32DFE7E3B
:1050E0004F2E892C44FE95C0FE01EC0DF11D8081F0
:1050F000803309F087C0242D297E422E842D8870AC
:10510000582E43FC95C040FE8FC09C2C821418F48E
:105110002C0C922C981844FE91C0B70180E390E0CB
:105120000E944A2942FE09C088E790E041FE02C081
:1051300088E590E0B7010E944A29C91408F48AC0A2
:10514000CA94D12C9FEFC91AD90ACA0CDB1CF601EC
:1051500082916F01B70190E00E944A29AC14BD040E
:10516000B1F74FCF60817181072E000C880B990B2E
:105170000E5F1F4F92CFD32CE894D4F82AE030E092
:10518000853739F1232D297FD22E8F3601F148F44E
:105190008835A9F0F701868197812B96E2E10C947E
:1051A000F429803749F08837A9F7D4FE02C0689403
:1051B000D2F820E130E00DC06894D4F8F6CF34FE88
:1051C00003C0822F8660D82E20E132E002C028E0A2
:1051D00030E0F801D7FE0FC0608171818281938138
:1051E0000C5F1F4FA5010E947A29C82ECA183D2CBA
:1051F000E89437F867CF6081718190E080E00E5FBE
:105200001F4FF0CF42FC02C0839478CF83948394E5
:1052100075CF842D867809F471CFF6CFB70180E27F
:1052200090E00E944A2983948214C0F3512C73CFDA
:10523000522C5818821408F46ECFF8CF842D86783B
:1052400009F47BCF8BE241FE80E247FC8DE2B7019F
:1052500090E071CFB70180E390E00E944A299A94D0
:105260006CCF8FEF9FEF99CFFC010590615070409C
:105270000110D8F7809590958E0F9F1F0895FC011F
:105280006150704001900110D8F7809590958E0F75
:105290009F1F08950F931F93CF93DF93182F092F0C
:1052A000EB018B8181FD09C01FEF0FEF812F902F44
:1052B000DF91CF911F910F91089582FF14C02E812D
:1052C0003F818C819D81281739073CF4E881F98161
:1052D000CF0101969983888310838E819F810196E7
:1052E0009F838E83E3CFE885F985812F0995892BEC
:1052F000A1F3DACFFA01AA27283051F1203181F148
:10530000E8946F936E7F6E5F7F4F8F4F9F4FAF4FCD
:10531000B1E03ED0B4E03CD0670F781F891F9A1FE0
:10532000A11D680F791F8A1F911DA11D6A0F711D94
:10533000811D911DA11D20D009F468943F912AE0A0
:10534000269F11243019305D3193DEF6CF01089588
:10535000462F4770405D4193B3E00FD0C9F7F6CFB9
:10536000462F4F70405D4A3318F0495D31FD405281
:10537000419302D0A9F7EACFB4E0A6959795879517
:1053800077956795BA95C9F70097610571050895F6
:105390009B01AC010A2E06945795479537952795A2
:1053A000BA95C9F7620F731F841F951FA01D08953A
:1053B0002F923F924F925F926F927F928F929F9225
:1053C000AF92BF92CF92DF92EF92FF920F931F9313
:1053D000CF93DF93CDB7DEB7CA1BDB0B0FB6F894C4
:1053E000DEBF0FBECDBF09942A88398848885F8404
:1053F0006E847D848C849B84AA84B984C884DF8075
:10540000EE80FD800C811B81AA81B981CE0FD11D58
:105410000FB6F894DEBF0FBECDBFED010895F8942E
:02542000FFCFBC
:105422003D083D08FF3F01780100000000EF0EEF4C
:105432000EEF0EB80CB40CB10C00000000900A4C38
:105442000A4A0AB80CB40C76047B08000102030471
:105452000506070008090A0B0C0D0E0F00101112A9
:1054620013141516170018191A1B1C1D1E1F0020D5
:10547200212223242526270028292A2B2C2D2E2FD2
:105482000030313233343536370038393A3B3C3D1F
:105492003E3F000000000000000000004041424387
:1054A2004445464700000F101F202F303F00010ED9
:1054B200111E212E313E00020D121D222D323D0001
:1054C200030C131C232C333C00040B141B242B341D
:1054D2003B00050A151A252A353A0006091619262F
:1054E2002936390007081718272837380040414263
:1054F2004344454647000000000000000000000051
:1055020000000019057904A6046605D704B504C98C
:1055120004322E352E302063757272656E742066E9
:1055220069726D776172652E002530336400546FA5
:1055320067676C65207468697320737465702E00E8
:105542005365742073657175656E6365206C656E55
:105552006768742E005365742073657175656E6398
:1055620065206C656E67687420746F2025642E0058
:1055720053656520616C6C207374657073206F666F
:105582002061206368616E6E656C2E0053656C65E8
:105592006374206368616E6E656C2025642E004121
:1055A200636365707420616E6420636C6F73652E33
:1055B2000053656520616C6C206368616E6E656C7A
:1055C200732E0052656F70656E206C617374206378
:1055D2006C6F736564206D656E752E00456E616239
:1055E2006C6520616C7465726E61746976652062A7
:1055F2007574746F6E2066756E6374696F6E732E48
:105602000053746F7020636C6F636B2E0053746170
:10561200727420636C6F636B2E005573652065781E
:105622007465726E616C20636C6F636B2E005573D0
:105632006520696E7465726E616C20636C6F636B5A
:105642002E004D756C7469706C79206F72206469DC
:105652007669646520636C6F636B20737065656443
:105662002E004D756C7469706C7920636C6F636B7E
:105672002073706565642E004469766964652063F1
:105682006C6F636B2073706565642E004D756C746E
:1056920069706C7920636C6F636B2062792025647A
:1056A2002E0044697669646520636C6F636B2062C7
:1056B200792025642E00536574206368616E6E65DF
:1056C2006C20256420746F2054524947474552206C
:1056D2006D6F64652E00536574206368616E6E653C
:1056E2006C20256420746F2047415445206D6F64FF
:1056F200652E0043686F6F736520545249474745D2
:1057020052206F72204741544520666F72206561B6
:105712006368206F75747075742E0053617665200E
:105722002F204C6F61642061207061747465726E09
:105732002E0053617665207061747465726E2074F8
:105742006F2025642E004C6F616420706174746553
:10575200726E2066726F6D2025642E004F4F4220BC
:1057620068656C70206D6573736167652045525280
:105772004F52212044657620636F64652025642E94
:1057820020506C6561736520636F6E746163742071
:105792004D6172656B204D6163682E000D0A000039
:00000001FF
